:100000000C9443000C9460000C9460000C9460000D
:100010000C9460000C9460000C9460000C946000E0
:100020000C9460000C94B7000C9460000C9489024E
:100030000C9460000C943E020C9460000C946000E0
:100040000C9460000C9460000C9460000C946000B0
:100050000C94600073746172740D006C617267655A
:100060002076616C75650D006F6B0D006572726FA7
:10007000720D00466C61736820746578742070722C
:100080006F62612E000011241FBECFE5D4E0DEBFF9
:10009000CDBF10E0A0E6B0E0ECEEF8E002C00590C5
:1000A0000D92A438B107D9F720E0A4E8B0E001C070
:1000B0001D92A93CB207E1F70E94BD010C947404A3
:1000C0000C940000089583B7856083BF86EF82BFDC
:1000D00089B7816089BF089586B1866886B987B17E
:1000E000806C87B90895806C87B98FE18A95F1F7A4
:1000F000369A349BFECF349A84B195B10895BC01F1
:10010000990F880B990B0E947B0328E435E247EE98
:100110005EEB0E94070426EF3BE54DE251E40E94AE
:10012000D70220E030E04CE753E40E94D7020E945F
:100130004303CB010895BC01990F880B990B0E94D2
:100140007B0321E733EC4DE050EC0E94070423E6EB
:100150003CE84BE054E40E94D70220E030E040EC61
:1001600051E40E94D7020E944303CB0108951F92DD
:100170000F920FB60F9211240F900FBE0F901F9089
:1001800018951092B80089EB90E09093B500809399
:10019000B40010928400109285000895E0918500CB
:1001A0008D3009F447C0EF30F0F590918400803233
:1001B00069F12091B800211109C029EB30E030939A
:1001C000B5002093B40021E02093B8002E2F30E03A
:1001D0009923A1F09091B800923070F4A92FB0E06B
:1001E000AA0FBB1FAC54BF4FA90147545F4F4D939B
:1001F0005C939F5F9093B80010928400D901A7543C
:10020000BF4F8C93EF5FE09385000DC091110BC041
:10021000AE2FB0E0A754BF4F1C92EF5FE093850074
:1002200081E080938400E0918500F0E0E754FF4F87
:1002300010820895F0E0E754FF4F10828091B800DB
:10024000882321F064EB70E00E949B011092B800BB
:1002500010928400109285000895AC0120E0E22FF6
:10026000F0E0DA01AE0FBF1F9C91E60FF71F8491FB
:1002700098130CC0911105C0E49181E0EE2349F080
:1002800007C0E491EE2321F02F5FE9CF9923A1F37A
:1002900080E00895FC0140E0242F30E0DF01A20F50
:1002A000B31F9C91DB01A20FB31F2C91921306C0C8
:1002B000992311F04F5FF0CF81E00895911102C0B2
:1002C00081E0211180E00895FC019F012F5F3F4FE5
:1002D0008081803311F4F901F8CF80E09191992366
:1002E00061F08053890F90819923C1F3982F990F62
:1002F000892F880F880F890FF1CF0895FC019F0186
:100300002F5F3F4F8081803311F4F901F8CF80E0F7
:1003100090E03AE02191222369F0C097820F911D6D
:1003200020812223B9F3AC01349FC001359F900D89
:100330001124F0CF08951F93CF93DF93182FEB0173
:1003400060E770E0888199810E944A01882359F012
:10035000123048F08A819B810E946401843630F01B
:100360008BE590E005C08CE690E002C088E690E066
:10037000DF91CF911F910C94300280E895E20E94AA
:10038000D901789485E790E00E94240283E790E009
:100390000E9430028FEF93EB0197F1F700C000004D
:1003A0000E9469028823B1F30E946C020E94CE0071
:1003B000F1CFF894A0E0B0E09C01AD0184E0220F01
:1003C000331F441F551F8A95D1F760E070EA8CE80F
:1003D00090E00E94B4022150310929B930BD80B5A6
:1003E000866880BD8AB1886D8AB908951092B3007D
:1003F0001092B2001092B10008959091B100943122
:10040000E1F35D9B06C09091B100911102C08CB9DF
:1004100008959091B1009431B0F49091B1009F5F34
:100420009093B100E091B200F0E0E656FF4F808378
:100430008091B2008F5F8093B2008091B2008431CE
:1004400011F41092B2000895CF93DF93EC018991DB
:10045000882319F00E94FD01FACFDF91CF91089512
:10046000CF93DF93EC01FE018491882321F00E9459
:10047000FD012196F8CFDF91CF9108951F920F9241
:100480000FB60F9211248F93EF93FF938091B100D9
:100490008823B9F0E091B300F0E0E656FF4F808189
:1004A0008CB98091B10081508093B1008091B300EC
:1004B0008F5F8093B3008091B300843111F4109268
:1004C000B300FF91EF918F910F900FBE0F901F908F
:1004D00018958091AE0008958091AE008823B9F000
:1004E000E091B000F0E0EA57FF4F80819091AE00BC
:1004F00091509093AE009091B0009F5F9093B000A8
:100500009091B000943121F41092B000089580E0F1
:1005100008951F920F920FB60F9211248F93EF93AD
:10052000FF938091AE008431B8F4E091AF00F0E029
:100530008CB1EA57FF4F80838091AF008F5F80932B
:10054000AF008091AE008F5F8093AE008091AF00CE
:10055000843111F41092AF00FF91EF918F910F90C1
:100560000FBE0F901F901895A1E21A2EAA1BBB1B5D
:10057000FD010DC0AA1FBB1FEE1FFF1FA217B3076F
:10058000E407F50720F0A21BB30BE40BF50B661F85
:10059000771F881F991F1A9469F760957095809549
:1005A00090959B01AC01BD01CF0108955058BB2728
:1005B000AA270E94EE020C94CD030E94BF0338F0DC
:1005C0000E94C60320F039F49F3F19F426F40C94DE
:1005D000BC030EF4E095E7FB0C94B603E92F0E94F0
:1005E000DE0358F3BA17620773078407950720F0F4
:1005F00079F4A6F50C9400040EF4E0950B2EBA2FB6
:10060000A02D0B01B90190010C01CA01A001112418
:10061000FF27591B99F0593F50F4503E68F11A16C4
:10062000F040A22F232F342F4427585FF3CF469555
:1006300037952795A795F0405395C9F77EF41F1677
:10064000BA0B620B730B840BBAF09150A1F0FF0F41
:10065000BB1F661F771F881FC2F70EC0BA0F621F2D
:10066000731F841F48F4879577956795B795F7951D
:100670009E3F08F0B0CF9395880F08F09927EE0FB2
:100680009795879508950E944A036894B1110C9438
:10069000010408950E94E60388F09F5798F0B92F4F
:1006A0009927B751B0F0E1F0660F771F881F991FA7
:1006B0001AF0BA95C9F714C0B13091F00E94000445
:1006C000B1E008950C940004672F782F8827B85F55
:1006D00039F0B93FCCF3869577956795B395D9F7FF
:1006E0003EF490958095709561957F4F8F4F9F4F09
:1006F0000895E89409C097FB3EF490958095709515
:1007000061957F4F8F4F9F4F9923A9F0F92F96E95D
:10071000BB279395F695879577956795B795F111D2
:10072000F8CFFAF4BB0F11F460FF1BC06F5F7F4F6F
:100730008F4F9F4F16C0882311F096E911C0772381
:1007400021F09EE8872F762F05C0662371F096E88A
:10075000862F70E060E02AF09A95660F771F881F59
:10076000DAF7880F9695879597F9089597F99F6717
:1007700080E870E060E008959FEF80EC0895002429
:100780000A941616170618060906089500240A94F6
:1007900012161306140605060895092E0394000C7C
:1007A00011F4882352F0BB0F40F4BF2B11F460FF0B
:1007B00004C06F5F7F4F8F4F9F4F089557FD905834
:1007C000440F551F59F05F3F71F04795880F97FB15
:1007D000991F61F09F3F79F08795089512161306CF
:1007E0001406551FF2CF4695F1DF08C016161706FE
:1007F0001806991FF1CF8695710561050894089533
:10080000E894BB2766277727CB0197F908950E94C4
:100810001A040C94CD030E94BF0338F00E94C60353
:1008200020F0952311F00C94B6030C94BC03112412
:100830000C9401040E94DE0370F3959FC1F3950FA1
:1008400050E0551F629FF001729FBB27F00DB11D54
:10085000639FAA27F00DB11DAA1F649F6627B00DE4
:10086000A11D661F829F2227B00DA11D621F739FCD
:10087000B00DA11D621F839FA00D611D221F749FDB
:100880003327A00D611D231F849F600D211D822F22
:10089000762F6A2F11249F5750409AF0F1F0882349
:1008A0004AF0EE0FFF1FBB1F661F771F881F915076
:1008B0005040A9F79E3F510580F00C94B6030C946C
:1008C00001045F3FE4F3983ED4F3869577956795EE
:1008D000B795F795E7959F5FC1F7FE2B880F911DA0
:0C08E0009695879597F90895F894FFCF3E
:1008EC0000001F430000664300007C430000C04131
:1008FC00546573740048656C6C6F2C20576F726C68
:04090C006421000062
:00000001FF
