:100000000C9445000C9462000C9462000C94620005
:100010000C9462000C9462000C9462000C946200D8
:100020000C9462000C9430010C9462000C946403F4
:100030000C9462000C9419030C9462000C946200FE
:100040000C9462000C9462000C9462000C946200A8
:100050000C94620073746172740D0A006C617267B3
:10006000652076616C75650D0A006F6B0D0A006581
:1000700072726F720D0A00466C6173682074657845
:10008000742070726F62612E000011241FBECFE5D4
:10009000D4E0DEBFCDBF10E0A0E6B0E0E2EAFAE0D7
:1000A00002C005900D92AE38B107D9F721E0AEE855
:1000B000B0E001C01D92AB30B207E1F70E948202AE
:1000C0000C944F050C940000089586B1866886B99B
:1000D00087B1806C87B90895806C87B98FE18A9564
:1000E000F1F7369A349BFECF349A84B195B10895D6
:1000F000BC01990F880B990B0E94560428E435E245
:1001000047EE5EEB0E94E20426EF3BE54DE251E450
:100110000E94B20320E030E04CE753E40E94B203B7
:100120000E941E04CB010895BC01990F880B990B06
:100130000E94560421E733EC4DE050EC0E94E204AB
:1001400023E63CE84BE054E40E94B20320E030E0B8
:1001500040EC51E40E94B2030E941E04CB010895BA
:1001600083B7856083BF86EF82BF89B7816089BF0F
:100170000895CF9320E030E0C7E0D901C29FF0019D
:10018000C39FF00D1124E257FF4F0190F081E02D45
:100190002F5F3F4FEF2B89F727E02A9FF0012B9F1E
:1001A000F00D1124E257FF4F9183808373836283A4
:1001B00055834483168281E0CF91089520E030E09A
:1001C00047E0429FF001439FF00D1124E257FF4F9B
:1001D00060817181672B69F060817181681779078F
:1001E00041F41182108213821282158214821682C7
:1001F00008952F5F3F4F2830310519F70895FF927A
:100200000F931F93CF93DF9300E010E087E0F82E69
:10021000F09EE001F19ED00D1124C257DF4F8E8178
:10022000813099F4E881F98109958C819D81892B30
:1002300021F4198218821B821A82F09EF001F19E2D
:10024000F00D1124E257FF4F16820F5F1F4F083049
:100250001105F1F6DF91CF911F910F91FF90089555
:100260001F920F920FB60F9211242F933F934F932B
:100270005F938F939F93EF93FF9386EF82BF80E00E
:1002800090E047E051E0489FF001499FF00D1124B4
:10029000E257FF4F20813181232B71F0228133817E
:1002A000232B21F456832481358104C0228133819C
:1002B000215031093383228301968830910519F743
:1002C000FF91EF919F918F915F914F913F912F916E
:1002D0000F900FBE0F901F9018951092FA008BEFA1
:1002E00090E09093F7008093F6001092C600109271
:1002F000C7000895E091C7008D3009F447C0EF3082
:10030000F0F59091C600803269F12091FA00211138
:1003100009C02BEF30E03093F7002093F60021E086
:100320002093FA002E2F30E09923A1F09091FA004B
:10033000923070F4A92FB0E0AA0FBB1FAA50BF4F94
:10034000A90145505F4F4D935C939F5F9093FA00D6
:100350001092C600D901A550BF4F8C93EF5FE09378
:10036000C7000DC091110BC0AE2FB0E0A550BF4F1C
:100370001C92EF5FE093C70081E08093C600E0919C
:10038000C700F0E0E550FF4F10820895F0E0E5501F
:10039000FF4F10828091FA00882321F066EF70E011
:1003A0000E9460021092FA001092C6001092C700DC
:1003B0000895AC0120E0E22FF0E0DA01AE0FBF1F9C
:1003C0009C91E60FF71F849198130CC0911105C002
:1003D000E49181E0EE2349F007C0E491EE2321F09F
:1003E0002F5FE9CF9923A1F380E00895FC0140E05D
:1003F000242F30E0DF01A20FB31F9C91DB01A20F7D
:10040000B31F2C91921306C0992311F04F5FF0CFC8
:1004100081E00895911102C081E0211180E00895EA
:10042000FC019F012F5F3F4F8081803311F4F90160
:10043000F8CF80E09191992361F08053890F9081EA
:100440009923C1F3982F990F892F880F880F890F4F
:10045000F1CF0895FC019F012F5F3F4F80818033D2
:1004600011F4F901F8CF80E090E03AE021912223E5
:1004700069F0C097820F911D20812223B9F3AC014E
:10048000349FC001359F900D1124F0CF089580E76F
:1004900090E00C94FF0283E790E00C94FF028BE461
:1004A00092E00E94DE0086E790E00C94FF020E943A
:1004B0004403882321F00E9447030C947A01089595
:1004C0001F93CF93DF93182FEB0169E770E08881CA
:1004D00099810E94F601882359F0123048F08A81F0
:1004E0009B810E941002843630F08CE590E005C0BC
:1004F0008FE690E002C08AE690E0DF91CF911F91F5
:100500000C940B0380E895E20E94B4020E94B000B4
:1005100078948EE790E00E94FF0287E790E00E94C7
:100520000B0340ED57E060E070E087E492E00E944A
:10053000B90040ED57E060E070E08BE492E00E948B
:10054000B90040E050E068EB7BE08FE492E00E946D
:10055000B9004AE050E061E070E087E592E00E9477
:10056000B9000E94FF00FDCFF894A0E0B0E09C012C
:10057000AD0184E0220F331F441F551F8A95D1F728
:1005800060E070EA8CE890E00E948F03215031090E
:1005900029B930BD80B5866880BD8AB1886D8AB9B9
:1005A00008951092F5001092F4001092F30008954F
:1005B0009091F3009431E1F35D9B06C09091F300BC
:1005C000911102C08CB908959091F3009431B0F468
:1005D0009091F3009F5F9093F300E091F400F0E0BE
:1005E000E452FF4F80838091F4008F5F8093F4008A
:1005F0008091F400843111F41092F4000895CF93A7
:10060000DF93EC018991882319F00E94D802FACF78
:10061000DF91CF910895CF93DF93EC01FE01849198
:10062000882321F00E94D8022196F8CFDF91CF9144
:1006300008951F920F920FB60F9211248F93EF938C
:10064000FF938091F3008823B9F0E091F500F0E08A
:10065000E452FF4F80818CB98091F30081508093E8
:10066000F3008091F5008F5F8093F5008091F50095
:10067000843111F41092F500FF91EF918F910F905A
:100680000FBE0F901F9018958091F00008958091F3
:10069000F0008823B9F0E091F200F0E0E853FF4F5A
:1006A00080819091F00091509093F0009091F20031
:1006B0009F5F9093F2009091F200943121F4109298
:1006C000F200089580E008951F920F920FB60F92E6
:1006D00011248F93EF93FF938091F0008431B8F44D
:1006E000E091F100F0E08CB1E853FF4F80838091FE
:1006F000F1008F5F8093F1008091F0008F5F809315
:10070000F0008091F100843111F41092F100FF911A
:10071000EF918F910F900FBE0F901F901895A1E24F
:100720001A2EAA1BBB1BFD010DC0AA1FBB1FEE1F6B
:10073000FF1FA217B307E407F50720F0A21BB30BB6
:10074000E40BF50B661F771F881F991F1A9469F732
:1007500060957095809590959B01AC01BD01CF018E
:1007600008955058BB27AA270E94C9030C94A804D7
:100770000E949A0438F00E94A10420F039F49F3FAF
:1007800019F426F40C9497040EF4E095E7FB0C940E
:100790009104E92F0E94B90458F3BA17620773074E
:1007A0008407950720F079F4A6F50C94DB040EF489
:1007B000E0950B2EBA2FA02D0B01B90190010C0171
:1007C000CA01A0011124FF27591B99F0593F50F489
:1007D000503E68F11A16F040A22F232F342F4427E1
:1007E000585FF3CF469537952795A795F0405395D9
:1007F000C9F77EF41F16BA0B620B730B840BBAF0A9
:100800009150A1F0FF0FBB1F661F771F881FC2F713
:100810000EC0BA0F621F731F841F48F48795779527
:100820006795B795F7959E3F08F0B0CF9395880FE1
:1008300008F09927EE0F9795879508950E94250453
:100840006894B1110C94DC0408950E94C10488F0EE
:100850009F5798F0B92F9927B751B0F0E1F0660F84
:10086000771F881F991F1AF0BA95C9F714C0B130C5
:1008700091F00E94DB04B1E008950C94DB04672F33
:10088000782F8827B85F39F0B93FCCF386957795F4
:100890006795B395D9F73EF49095809570956195DD
:1008A0007F4F8F4F9F4F0895E89409C097FB3EF408
:1008B00090958095709561957F4F8F4F9F4F9923AD
:1008C000A9F0F92F96E9BB279395F695879577952B
:1008D0006795B795F111F8CFFAF4BB0F11F460FFEB
:1008E0001BC06F5F7F4F8F4F9F4F16C0882311F043
:1008F00096E911C0772321F09EE8872F762F05C057
:10090000662371F096E8862F70E060E02AF09A95F1
:10091000660F771F881FDAF7880F9695879597F9E6
:10092000089597F99F6780E870E060E008959FEF71
:1009300080EC089500240A94161617061806090676
:10094000089500240A941216130614060506089545
:10095000092E0394000C11F4882352F0BB0F40F4CD
:10096000BF2B11F460FF04C06F5F7F4F8F4F9F4F0D
:10097000089557FD9058440F551F59F05F3F71F08F
:100980004795880F97FB991F61F09F3F79F08795F6
:100990000895121613061406551FF2CF4695F1DF7F
:1009A00008C0161617061806991FF1CF869571050F
:1009B000610508940895E894BB2766277727CB0143
:1009C00097F908950E94F5040C94A8040E949A04D3
:1009D00038F00E94A10420F0952311F00C949104AA
:1009E0000C94970411240C94DC040E94B90470F355
:1009F000959FC1F3950F50E0551F629FF001729FC4
:100A0000BB27F00DB11D639FAA27F00DB11DAA1FD2
:100A1000649F6627B00DA11D661F829F2227B00D1F
:100A2000A11D621F739FB00DA11D621F839FA00DAA
:100A3000611D221F749F3327A00D611D231F849FFA
:100A4000600D211D822F762F6A2F11249F57504051
:100A50009AF0F1F088234AF0EE0FFF1FBB1F661FCC
:100A6000771F881F91505040A9F79E3F510580F095
:100A70000C9491040C94DC045F3FE4F3983ED4F3AF
:100A8000869577956795B795F795E7959F5FC1F739
:100A9000FE2B880F911D9695879597F90895F894E8
:020AA000FFCF86
:100AA20000001F430000664300007C430000C04179
:100AB200310A00320A00330A005465737400486533
:0E0AC2006C6C6F2C20576F726C64210A000060
:00000001FF
