:100000000C944C000C9469000C9469000C946900E9
:100010000C9469000C9469000C9469000C946900BC
:100020000C9469000C949F010C9469000C94DD03FE
:100030000C9469000C9492030C9469000C94690070
:100040000C9469000C9469000C9469000C9469008C
:100050000C94690054656D706572617475726520E9
:100060003D200073746172740D0A006C61726765E3
:100070002076616C75650D0A006F6B0D0A00657264
:10008000726F720D0A00466C617368207465787433
:100090002070726F62612E0011241FBECFE5D4E084
:1000A000DEBFCDBF10E0A0E6B0E0ECEBFBE002C0AD
:1000B00005900D92A038B107D9F720E0A0E8B0E094
:1000C00001C01D92AD3FB207E1F70E9409030C94F5
:1000D000DC050C9400000895AF92BF92CF92DF929E
:1000E000EF92FF920F931F93CF93DF93B82EC92EF9
:1000F000FB0180E280838183828383838B01DB2CFD
:10010000D92FC4E020E137E2A12C8AE0E82EF12CBF
:100110008D2D9D2FB9010E9408046115710511F400
:10012000AA2029F0605DD8016C93AA24A3948B2D9A
:100130009C2DB9010E940804482FD82ED92FC9013F
:10014000B7010E9408049B01C1500F5F1F4FC111EE
:10015000DFCF405D4483DF91CF911F910F91FF90DE
:10016000EF90DF90CF90BF90AF90089586B18668F2
:1001700086B987B1806C87B90895806C87B98FE1A3
:100180008A95F1F7369A349BFECF349A84B195B1B3
:100190000895BC01990F880B990B0E94E30420ED90
:1001A0003BED44E25FEB0E946F0528EB39E447E743
:1001B00051E40E943F0420E030E84AE853E40E9402
:1001C0003F040E94AB04CB010895BC01990F880B3A
:1001D000990B0E94E30424EA33EC46EC5FEB0E94A7
:1001E0006F0520EB31E147ED53E40E943F0420E02E
:1001F00030E040EC51E40E943F040E94AB04CB018C
:10020000089583B7856083BF86EF82BF89B7816019
:1002100089BF0895CF93DF93F89420E030E0A0E009
:10022000B7E0B29FF001B39FF00D1124E058FF4FEB
:10023000C081D181C817D90719F473836283A1E003
:100240002F5F3F4F2830310561F7A11121C020E019
:1002500030E0C7E0D901C29FF001C39FF00D112427
:10026000E058FF4F0190F081E02D2F5F3F4FEF2BC3
:1002700089F727E02A9FF0012B9FF00D1124E05809
:10028000FF4F9183808373836283558344831682F7
:10029000789481E0DF91CF91089520E030E047E04D
:1002A000429FF001439FF00D1124E058FF4F608101
:1002B0007181672B69F0608171816817790741F45A
:1002C000118210821382128215821482168208957E
:1002D0002F5F3F4F2830310519F70895FF920F9394
:1002E0001F93CF93DF9300E010E087E0F82EF09E9D
:1002F000E001F19ED00D1124C058DF4F8E81813076
:1003000099F4E881F98109958C819D81892B21F4EB
:10031000198218821B821A82F09EF001F19EF00D64
:100320001124E058FF4F16820F5F1F4F0830110550
:10033000F1F6DF91CF911F910F91FF9008951F92D9
:100340000F920FB60F9211242F933F934F935F9309
:100350008F939F93EF93FF9386EF82BF80E090E0AF
:1003600047E051E0489FF001499FF00D1124E0580B
:10037000FF4F20813181232B71F022813381232B88
:1003800021F456832481358104C022813381215098
:1003900031093383228301968830910519F7FF9143
:1003A000EF919F918F915F914F913F912F910F907E
:1003B0000FBE0F901F9018951092EC008DEE90E0FC
:1003C0009093E9008093E8001092B8001092B90071
:1003D0000895E091B9008D3009F447C0EF30F0F591
:1003E0009091B800803269F12091EC00211109C090
:1003F0002DEE30E03093E9002093E80021E02093D7
:10040000EC002E2F30E09923A1F09091EC00923077
:1004100070F4A92FB0E0AA0FBB1FA851BF4FA901CC
:1004200043515F4F4D935C939F5F9093EC0010920C
:10043000B800D901A351BF4F8C93EF5FE093B9008F
:100440000DC091110BC0AE2FB0E0A351BF4F1C9255
:10045000EF5FE093B90081E08093B800E091B900CC
:10046000F0E0E351FF4F10820895F0E0E351FF4FB9
:1004700010828091EC00882321F068EE70E00E94E9
:10048000CF021092EC001092B8001092B9000895BB
:10049000AC0120E0E22FF0E0DA01AE0FBF1F9C912B
:1004A000E60FF71F849198130CC0911105C0E491D9
:1004B00081E0EE2349F007C0E491EE2321F02F5FA5
:1004C000E9CF9923A1F380E00895FC0140E0242FB7
:1004D00030E0DF01A20FB31F9C91DB01A20FB31F1D
:1004E0002C91921306C0992311F04F5FF0CF81E059
:1004F0000895911102C081E0211180E00895FC016E
:100500009F012F5F3F4F8081803311F4F901F8CFB5
:1005100080E09191992361F08053890F9081992314
:10052000C1F3982F990F892F880F880F890FF1CF6A
:100530000895FC019F012F5F3F4F8081803311F4AC
:10054000F901F8CF80E090E03AE02191222369F0B0
:10055000C097820F911D20812223B9F3AC01349FF3
:10056000C001359F900D1124F0CF089580E690E0F2
:100570000E9478038AE00C94510380E00E94BD0041
:100580000E94E50060E670E00C946C000E94BD03E0
:10059000882321F00E94C0030C94E90108950F9371
:1005A0001F93CF93DF93C82F8B0166E670E0F801AD
:1005B000808191810E946502882361F0C23050F0F1
:1005C000F801828193810E947F02843630F0CBE66D
:1005D000D0E005C0CEE7D0E002C0C9E7D0E06BE6CE
:1005E00070E0F801808191810E946502882351F0BA
:1005F00040E050E060E070E086EB92E00E940A018B
:10060000C4E5D0E0CE01DF91CF911F910F910C9402
:10061000840380E895E20E942D030E9401010E945C
:10062000B600789480E790E00E94780386E890E036
:100630000E9484034AE050E061E070E086EC92E0C2
:100640000E940A0148EE53E064E670E08DEB92E010
:100650000E940A010E946E01FDCFF894A0E0B0E074
:100660009C01AD0184E0220F331F441F551F8A9562
:10067000D1F760E070EA8CE890E00E941C04215001
:10068000310929B930BD80B5866880BD8AB1886DD1
:100690008AB908951092E7001092E6001092E500E2
:1006A00008959091E5009431E1F35D9B06C090912F
:1006B000E500911102C08CB908959091E500943144
:1006C000B0F49091E5009F5F9093E500E091E60023
:1006D000F0E0E253FF4F80838091E6008F5F8093CC
:1006E000E6008091E600843111F41092E60008954E
:1006F000CF93DF93EC018991882319F00E94510375
:10070000FACFDF91CF910895CF93DF93EC01FE01F3
:100710008491882321F00E9451032196F8CFDF9124
:10072000CF9108951F920F920FB60F9211248F93BD
:10073000EF93FF938091E5008823B9F0E091E70003
:10074000F0E0E253FF4F80818CB98091E500815049
:100750008093E5008091E7008F5F8093E7008091B0
:10076000E700843111F41092E700FF91EF918F912F
:100770000F900FBE0F901F9018958091E200089582
:100780008091E2008823B9F0E091E400F0E0E654C3
:10079000FF4F80819091E20091509093E200909100
:1007A000E4009F5F9093E4009091E400943121F481
:1007B0001092E400089580E008951F920F920FB602
:1007C0000F9211248F93EF93FF938091E200843175
:1007D000B8F4E091E300F0E08CB1E654FF4F808381
:1007E0008091E3008F5F8093E3008091E2008F5F50
:1007F0008093E2008091E300843111F41092E300D1
:10080000FF91EF918F910F900FBE0F901F90189551
:10081000AA1BBB1B51E107C0AA1FBB1FA617B70726
:1008200010F0A61BB70B881F991F5A95A9F7809542
:100830009095BC01CD010895A1E21A2EAA1BBB1B05
:10084000FD010DC0AA1FBB1FEE1FFF1FA217B3079C
:10085000E407F50720F0A21BB30BE40BF50B661FB2
:10086000771F881F991F1A9469F760957095809576
:1008700090959B01AC01BD01CF0108955058BB2755
:10088000AA270E9456040C9435050E94270538F0CB
:100890000E942E0520F039F49F3F19F426F40C94A1
:1008A00024050EF4E095E7FB0C941E05E92F0E9449
:1008B000460558F3BA17620773078407950720F0B7
:1008C00079F4A6F50C9468050EF4E0950B2EBA2F7A
:1008D000A02D0B01B90190010C01CA01A001112446
:1008E000FF27591B99F0593F50F4503E68F11A16F2
:1008F000F040A22F232F342F4427585FF3CF469583
:1009000037952795A795F0405395C9F77EF41F16A4
:10091000BA0B620B730B840BBAF09150A1F0FF0F6E
:10092000BB1F661F771F881FC2F70EC0BA0F621F5A
:10093000731F841F48F4879577956795B795F7954A
:100940009E3F08F0B0CF9395880F08F09927EE0FDF
:100950009795879508950E94B2046894B1110C94FC
:10096000690508950E944E0588F09F5798F0B92FA9
:100970009927B751B0F0E1F0660F771F881F991FD4
:100980001AF0BA95C9F714C0B13091F00E94680509
:10099000B1E008950C946805672F782F8827B85F19
:1009A00039F0B93FCCF3869577956795B395D9F72C
:1009B0003EF490958095709561957F4F8F4F9F4F36
:1009C0000895E89409C097FB3EF490958095709542
:1009D00061957F4F8F4F9F4F9923A9F0F92F96E98B
:1009E000BB279395F695879577956795B795F11100
:1009F000F8CFFAF4BB0F11F460FF1BC06F5F7F4F9D
:100A00008F4F9F4F16C0882311F096E911C07723AE
:100A100021F09EE8872F762F05C0662371F096E8B7
:100A2000862F70E060E02AF09A95660F771F881F86
:100A3000DAF7880F9695879597F9089597F99F6744
:100A400080E870E060E008959FEF80EC0895002456
:100A50000A941616170618060906089500240A9423
:100A600012161306140605060895092E0394000CA9
:100A700011F4882352F0BB0F40F4BF2B11F460FF38
:100A800004C06F5F7F4F8F4F9F4F089557FD905861
:100A9000440F551F59F05F3F71F04795880F97FB42
:100AA000991F61F09F3F79F08795089512161306FC
:100AB0001406551FF2CF4695F1DF08C0161617062B
:100AC0001806991FF1CF8695710561050894089560
:100AD000E894BB2766277727CB0197F908950E94F2
:100AE00082050C9435050E94270538F00E942E05DA
:100AF00020F0952311F00C941E050C94240511246C
:100B00000C9469050E94460570F3959FC1F3950FFB
:100B100050E0551F629FF001729FBB27F00DB11D81
:100B2000639FAA27F00DB11DAA1F649F6627B00D11
:100B3000A11D661F829F2227B00DA11D621F739FFA
:100B4000B00DA11D621F839FA00D611D221F749F08
:100B50003327A00D611D231F849F600D211D822F4F
:100B6000762F6A2F11249F5750409AF0F1F0882376
:100B70004AF0EE0FFF1FBB1F661F771F881F9150A3
:100B80005040A9F79E3F510580F00C941E050C942F
:100B900069055F3FE4F3983ED4F3869577956795B2
:100BA000B795F795E7959F5FC1F7FE2B880F911DCD
:0C0BB0009695879597F90895F894FFCF6B
:100BBC00202020202000546573740054656D700053
:100BCC0048656C6C6F2C20576F726C64210A0000A6
:040000030000006396
:00000001FF
