:100000000C9433000C9450000C9450000C9450004D
:100010000C9450000C9450000C9450000C94500020
:100020000C9450000C94A7000C9450000C945101B7
:100030000C9450000C9424010C9450000C9450002B
:100040000C9450000C9450000C9450000C945000F0
:100050000C945000466C617368207465787420704D
:10006000726F62612E0011241FBECFE5D4E0DEBFA7
:10007000CDBF10E0A0E6B0E0EAE3F6E002C00590F4
:100080000D92AE37B107D9F720E0AEE7B0E001C07E
:100090001D92AC3AB207E1F70E94B1000C941B0329
:1000A0000C940000089583B7856083BF86EF82BFFC
:1000B00089B7816089BF089586B1866886B987B19E
:1000C000806C87B90895806C87B98FE18A95F1F7C4
:1000D000369A349BFECF349A84B195B10895BC0111
:1000E000990F880B990B0E94220228E435E247EE13
:1000F0005EEB0E94AE0226EF3BE54DE251E40E942A
:100100007E0120E030E04CE753E40E947E010E9433
:10011000EA01CB010895BC01990F880B990B0E944D
:10012000220221E733EC4DE050EC0E94AE0223E6C0
:100130003CE84BE054E40E947E0120E030E040ECDB
:1001400051E40E947E010E94EA01CB0108951F92B2
:100150000F920FB60F9211240F900FBE0F901F90A9
:10016000189580E09BE40E94BF00789480E790E0BF
:100170000E940A0184E590E00E941601FFCFF894E6
:10018000A0E0B0E09C01AD0184E0220F331F441FCA
:10019000551F8A95D1F760E070EA8CE890E00E94E4
:1001A0005B012150310929B930BD80B5866880BD19
:1001B0008AB1886D8AB908951092AB001092AA0096
:1001C0001092A90008959091A9009431E1F35D9BEC
:1001D00006C09091A900911102C08CB90895909128
:1001E000A9009431B0F49091A9009F5F9093A90069
:1001F000E091AA00F0E0EE56FF4F80838091AA00C4
:100200008F5F8093AA008091AA00843111F410922C
:10021000AA000895CF93DF93EC018991882319F008
:100220000E94E300FACFDF91CF910895CF93DF933F
:10023000EC01FE018491882321F00E94E3002196C5
:10024000F8CFDF91CF9108951F920F920FB60F92C2
:1002500011248F93EF93FF938091A9008823B9F025
:10026000E091AB00F0E0EE56FF4F80818CB98091B9
:10027000A90081508093A9008091AB008F5F80938B
:10028000AB008091AB00843111F41092AB00FF9170
:10029000EF918F910F900FBE0F901F90189580E0F7
:1002A00008951F920F920FB60F9211240F900FBE58
:1002B0000F901F901895A1E21A2EAA1BBB1BFD01DF
:1002C0000DC0AA1FBB1FEE1FFF1FA217B307E40735
:1002D000F50720F0A21BB30BE40BF50B661F771F8D
:1002E000881F991F1A9469F760957095809590956D
:1002F0009B01AC01BD01CF0108955058BB27AA272F
:100300000E9495010C9474020E94660238F00E94CB
:100310006D0220F039F49F3F19F426F40C94630227
:100320000EF4E095E7FB0C945D02E92F0E94850234
:1003300058F3BA17620773078407950720F079F41A
:10034000A6F50C94A7020EF4E0950B2EBA2FA02D63
:100350000B01B90190010C01CA01A0011124FF2772
:10036000591B99F0593F50F4503E68F11A16F0406D
:10037000A22F232F342F4427585FF3CF469537956C
:100380002795A795F0405395C9F77EF41F16BA0B31
:10039000620B730B840BBAF09150A1F0FF0FBB1FDF
:1003A000661F771F881FC2F70EC0BA0F621F731F28
:1003B000841F48F4879577956795B795F7959E3F85
:1003C00008F0B0CF9395880F08F09927EE0F979516
:1003D000879508950E94F1016894B1110C94A802C8
:1003E00008950E948D0288F09F5798F0B92F9927A1
:1003F000B751B0F0E1F0660F771F881F991F1AF010
:10040000BA95C9F714C0B13091F00E94A702B1E0CB
:1004100008950C94A702672F782F8827B85F39F0CA
:10042000B93FCCF3869577956795B395D9F73EF4A8
:1004300090958095709561957F4F8F4F9F4F089550
:10044000E89409C097FB3EF490958095709561956E
:100450007F4F8F4F9F4F9923A9F0F92F96E9BB2724
:100460009395F695879577956795B795F111F8CFA0
:10047000FAF4BB0F11F460FF1BC06F5F7F4F8F4F0B
:100480009F4F16C0882311F096E911C0772321F001
:100490009EE8872F762F05C0662371F096E8862F99
:1004A00070E060E02AF09A95660F771F881FDAF7F0
:1004B000880F9695879597F9089597F99F6780E833
:1004C00070E060E008959FEF80EC089500240A94A6
:1004D0001616170618060906089500240A9412161F
:1004E0001306140605060895092E0394000C11F452
:1004F000882352F0BB0F40F4BF2B11F460FF04C0FF
:100500006F5F7F4F8F4F9F4F089557FD9058440F57
:10051000551F59F05F3F71F04795880F97FB991F62
:1005200061F09F3F79F0879508951216130614061F
:10053000551FF2CF4695F1DF08C0161617061806AC
:10054000991FF1CF86957105610508940895E89487
:10055000BB2766277727CB0197F908950E94C10230
:100560000C9474020E94660238F00E946D0220F022
:10057000952311F00C945D020C94630211240C94E9
:10058000A8020E94850270F3959FC1F3950F50E079
:10059000551F629FF001729FBB27F00DB11D639F35
:1005A000AA27F00DB11DAA1F649F6627B00DA11DDB
:1005B000661F829F2227B00DA11D621F739FB00D81
:1005C000A11D621F839FA00D611D221F749F3327F1
:1005D000A00D611D231F849F600D211D822F762F8A
:1005E0006A2F11249F5750409AF0F1F088234AF067
:1005F000EE0FFF1FBB1F661F771F881F91505040D3
:10060000A9F79E3F510580F00C945D020C94A8025E
:100610005F3FE4F3983ED4F3869577956795B79559
:10062000F795E7959F5FC1F7FE2B880F911D969573
:0A063000879597F90895F894FFCF1D
:10063A0000001F430000664300007C430000C041E5
:0E064A0048656C6C6F2C20576F726C64210039
:00000001FF
