:100000000C944C000C9469000C9469000C946900E9
:100010000C9469000C9469000C9469000C946900BC
:100020000C9469000C9481010C9469000C94BF033A
:100030000C9469000C9474030C9469000C9469008E
:100040000C9469000C9469000C9469000C9469008C
:100050000C94690054656D706572617475726520E9
:100060003D200073746172740D0A006C61726765E3
:100070002076616C75650D0A006F6B0D0A00657264
:10008000726F720D0A00466C617368207465787433
:100090002070726F62612E0011241FBECFE5D4E084
:1000A000DEBFCDBF10E0A0E6B0E0E0E8FBE002C0BC
:1000B00005900D92A039B107D9F721E0A0E9B0E091
:1000C00001C01D92AD30B207E1F70E94EB020C9423
:1000D000BE050C9400000895AF92BF92CF92DF92BC
:1000E000EF92FF920F931F93CF93DF93B82EC92EF9
:1000F000FB0180E280838183828383838B01DB2CFD
:10010000D92FC4E020E137E2A12C8AE0E82EF12CBF
:100110008D2D9D2FB9010E94EA036115710511F41F
:10012000AA2029F0605DD8016C93AA24A3948B2D9A
:100130009C2DB9010E94EA03482FD82ED92FC9015E
:10014000B7010E94EA039B01C1500F5F1F4FC1110D
:10015000DFCF405D4483DF91CF911F910F91FF90DE
:10016000EF90DF90CF90BF90AF90089586B18668F2
:1001700086B987B1806C87B90895806C87B98FE1A3
:100180008A95F1F7369A349BFECF349A84B195B1B3
:100190000895BC01990F880B990B0E94C50420EDAE
:1001A0003BED44E25FEB0E94510528EB39E447E761
:1001B00051E40E94210420E030E84AE853E40E9420
:1001C00021040E948D04CB010895BC01990F880B76
:1001D000990B0E94C50424EA33EC46EC5FEB0E94C5
:1001E000510520EB31E147ED53E40E94210420E06A
:1001F00030E040EC51E40E9421040E948D04CB01C8
:10020000089583B7856083BF86EF82BF89B7816019
:1002100089BF0895CF9320E030E0C7E0D901C29FA5
:10022000F001C39FF00D1124E057FF4F0190F081C2
:10023000E02D2F5F3F4FEF2B89F727E02A9FF0013A
:100240002B9FF00D1124E057FF4F91838083738320
:10025000628355834483168281E0CF91089520E024
:1002600030E047E0429FF001439FF00D1124E0573A
:10027000FF4F60817181672B69F060817181681720
:10028000790741F41182108213821282158214823E
:10029000168208952F5F3F4F2830310519F70895D2
:1002A000FF920F931F93CF93DF9300E010E087E05E
:1002B000F82EF09EE001F19ED00D1124C057DF4FC3
:1002C0008E81813099F4E881F98109958C819D8135
:1002D000892B21F4198218821B821A82F09EF00168
:1002E000F19EF00D1124E057FF4F16820F5F1F4F54
:1002F00008301105F1F6DF91CF911F910F91FF901A
:1003000008951F920F920FB60F9211242F933F93CF
:100310004F935F938F939F93EF93FF9386EF82BFEB
:1003200080E090E047E051E0489FF001499FF00DE8
:100330001124E057FF4F20813181232B71F022815E
:100340003381232B21F456832481358104C02281FB
:1003500033812150310933832283019688309105FE
:1003600019F7FF91EF919F918F915F914F913F917D
:100370002F910F900FBE0F901F9018951092FC00B8
:100380008DEF90E09093F9008093F8001092C800F0
:100390001092C9000895E091C9008D3009F447C05A
:1003A000EF30F0F59091C800803269F12091FC00A7
:1003B000211109C02DEF30E03093F9002093F800AF
:1003C00021E02093FC002E2F30E09923A1F09091A2
:1003D000FC00923070F4A92FB0E0AA0FBB1FA85008
:1003E000BF4FA90143505F4F4D935C939F5F909324
:1003F000FC001092C800D901A350BF4F8C93EF5F4F
:10040000E093C9000DC091110BC0AE2FB0E0A35016
:10041000BF4F1C92EF5FE093C90081E08093C8005A
:10042000E091C900F0E0E350FF4F10820895F0E042
:10043000E350FF4F10828091FC00882321F068EF89
:1004400070E00E94B1021092FC001092C80010925D
:10045000C9000895AC0120E0E22FF0E0DA01AE0F10
:10046000BF1F9C91E60FF71F849198130CC0911148
:1004700005C0E49181E0EE2349F007C0E491EE234A
:1004800021F02F5FE9CF9923A1F380E00895FC01CB
:1004900040E0242F30E0DF01A20FB31F9C91DB016D
:1004A000A20FB31F2C91921306C0992311F04F5F36
:1004B000F0CF81E00895911102C081E0211180E028
:1004C0000895FC019F012F5F3F4F8081803311F41D
:1004D000F901F8CF80E09191992361F08053890F61
:1004E00090819923C1F3982F990F892F880F880F36
:1004F000890FF1CF0895FC019F012F5F3F4F80814D
:10050000803311F4F901F8CF80E090E03AE02191D6
:10051000222369F0C097820F911D20812223B9F315
:10052000AC01349FC001359F900D1124F0CF089588
:1005300080E690E00E945A038AE00C94330380E046
:100540000E94BD000E94E50060E670E00C946C0023
:100550000E949F03882321F00E94A2030C94CB01E8
:1005600008950F931F93CF93DF93C82F8B0166E7F6
:1005700070E0F801808191810E944702882361F038
:10058000C23050F0F801828193810E94610284366A
:1005900030F0CBE6D0E005C0CEE7D0E002C0C9E73E
:1005A000D0E06BE770E0F801808191810E94470202
:1005B000882351F040E050E060E070E088E992E08C
:1005C0000E940A01C4E5D0E0CE01DF91CF911F91D6
:1005D0000F910C94660380E895E20E940F030E943D
:1005E00001010E94B600789480E890E00E945A03CE
:1005F00086E890E00E9466034AE050E061E070E027
:1006000088EA92E00E940A0148EE53E064E670E056
:100610008FE992E00E940A010E945001FDCFF894F8
:10062000A0E0B0E09C01AD0184E0220F331F441F25
:10063000551F8A95D1F760E070EA8CE890E00E943F
:10064000FE032150310929B930BD80B5866880BDCF
:100650008AB1886D8AB908951092F7001092F60059
:100660001092F50008959091F5009431E1F35D9BAF
:1006700006C09091F500911102C08CB90895909137
:10068000F5009431B0F49091F5009F5F9093F500E0
:10069000E091F600F0E0E252FF4F80838091F60097
:1006A0008F5F8093F6008091F600843111F41092F0
:1006B000F6000895CF93DF93EC018991882319F018
:1006C0000E943303FACFDF91CF910895CF93DF9348
:1006D000EC01FE018491882321F00E9433032196CE
:1006E000F8CFDF91CF9108951F920F920FB60F921E
:1006F00011248F93EF93FF938091F5008823B9F035
:10070000E091F700F0E0E252FF4F80818CB98091D8
:10071000F50081508093F5008091F7008F5F809302
:10072000F7008091F700843111F41092F700FF91E7
:10073000EF918F910F900FBE0F901F9018958091A1
:10074000F20008958091F2008823B9F0E091F4005E
:10075000F0E0E653FF4F80819091F200915090932A
:10076000F2009091F4009F5F9093F4009091F40058
:10077000943121F41092F400089580E008951F92BE
:100780000F920FB60F9211248F93EF93FF938091E6
:10079000F2008431B8F4E091F300F0E08CB1E6535C
:1007A000FF4F80838091F3008F5F8093F3008091EF
:1007B000F2008F5F8093F2008091F300843111F496
:1007C0001092F300FF91EF918F910F900FBE0F9059
:1007D0001F901895AA1BBB1B51E107C0AA1FBB1F86
:1007E000A617B70710F0A61BB70B881F991F5A95BD
:1007F000A9F780959095BC01CD010895A1E21A2E2C
:10080000AA1BBB1BFD010DC0AA1FBB1FEE1FFF1FB4
:10081000A217B307E407F50720F0A21BB30BE40B04
:10082000F50B661F771F881F991F1A9469F760954B
:100830007095809590959B01AC01BD01CF01089505
:100840005058BB27AA270E9438040C9417050E9411
:10085000090538F00E94100520F039F49F3F19F483
:1008600026F40C9406050EF4E095E7FB0C940005C5
:10087000E92F0E94280558F3BA1762077307840707
:10088000950720F079F4A6F50C944A050EF4E0954E
:100890000B2EBA2FA02D0B01B90190010C01CA013A
:1008A000A0011124FF27591B99F0593F50F4503EE5
:1008B00068F11A16F040A22F232F342F4427585FD7
:1008C000F3CF469537952795A795F0405395C9F7EF
:1008D0007EF41F16BA0B620B730B840BBAF09150A7
:1008E000A1F0FF0FBB1F661F771F881FC2F70EC046
:1008F000BA0F621F731F841F48F487957795679519
:10090000B795F7959E3F08F0B0CF9395880F08F004
:100910009927EE0F9795879508950E9494046894FF
:10092000B1110C944B0508950E94300588F09F5733
:1009300098F0B92F9927B751B0F0E1F0660F771F03
:10094000881F991F1AF0BA95C9F714C0B13091F0F9
:100950000E944A05B1E008950C944A05672F782F4C
:100960008827B85F39F0B93FCCF3869577956795BE
:10097000B395D9F73EF490958095709561957F4F2A
:100980008F4F9F4F0895E89409C097FB3EF49095D0
:100990008095709561957F4F8F4F9F4F9923A9F058
:1009A000F92F96E9BB279395F695879577956795E7
:1009B000B795F111F8CFFAF4BB0F11F460FF1BC02B
:1009C0006F5F7F4F8F4F9F4F16C0882311F096E9BE
:1009D00011C0772321F09EE8872F762F05C066236C
:1009E00071F096E8862F70E060E02AF09A95660F25
:1009F000771F881FDAF7880F9695879597F90895DE
:100A000097F99F6780E870E060E008959FEF80ECC1
:100A1000089500240A941616170618060906089564
:100A200000240A9412161306140605060895092ECA
:100A30000394000C11F4882352F0BB0F40F4BF2B39
:100A400011F460FF04C06F5F7F4F8F4F9F4F089579
:100A500057FD9058440F551F59F05F3F71F047956F
:100A6000880F97FB991F61F09F3F79F08795089554
:100A7000121613061406551FF2CF4695F1DF08C073
:100A8000161617061806991FF1CF86957105610590
:100A900008940895E894BB2766277727CB0197F938
:100AA00008950E9464050C9417050E94090538F00A
:100AB0000E94100520F0952311F00C9400050C9471
:100AC000060511240C944B050E94280570F3959F90
:100AD000C1F3950F50E0551F629FF001729FBB2735
:100AE000F00DB11D639FAA27F00DB11DAA1F649FD1
:100AF0006627B00DA11D661F829F2227B00DA11D84
:100B0000621F739FB00DA11D621F839FA00D611D09
:100B1000221F749F3327A00D611D231F849F600D2A
:100B2000211D822F762F6A2F11249F5750409AF053
:100B3000F1F088234AF0EE0FFF1FBB1F661F771FDF
:100B4000881F91505040A9F79E3F510580F00C94AA
:100B500000050C944B055F3FE4F3983ED4F3869573
:100B600077956795B795F795E7959F5FC1F7FE2B4A
:100B7000880F911D9695879597F90895F894FFCF62
:100B800020202020200000001A430000574300804E
:100B90008A430000C041546573740054656D700051
:100BA00048656C6C6F2C20576F726C64210A0000D2
:040000030000006396
:00000001FF
